:020000040800F2
:10000000F80D002001010008CB1C0008811A00082F
:10001000C91C0008E7010008FB38000800000000C8
:10002000000000000000000000000000E31F0008C6
:10003000E901000800000000E11F0008E51F0008BA
:100040001B0100081B0100081B0100081B01000820
:100050001B0100081B010008EB0100081B01000840
:100060001B0100081B0100081B0100081B01000800
:100070001B0100081B0100081B0100081B010008F0
:100080001B0100081B0100081B0100081B010008E0
:10009000853800081B0100081B0100081B0100082F
:1000A0001B0100081B0100081B0100081B010008C0
:1000B0001B0100081B0100081B0100081B010008B0
:1000C0001B0100081B0100081B0100081B010008A0
:1000D0001B0100081B0100081B0100081B01000890
:1000E0001B0100081B0100081B010008DFF80CD0F1
:1000F00000F03CF8004800473D390008F80D0020AA
:100100000648804706480047FEE7FEE7FEE7FEE7B1
:10011000FEE7FEE7FEE7FEE7FEE7FEE75F200008FA
:10012000ED00000840EA01039B0703D009E008C97D
:10013000121F08C0042AFAD203E011F8013B00F8AC
:10014000013B521EF9D27047D2B201E000F8012BF8
:10015000491EFBD270470022F6E710B513460A4647
:1001600004461946FFF7F0FF204610BD064C074D28
:1001700006E0E06840F0010394E807009847103477
:10018000AC42F6D3FFF7B6FFB83A0008D83A0008F9
:1001900070B58C1810F8015B15F0070301D110F849
:1001A000013B2A1106D110F8012B03E010F8016B76
:1001B00001F8016B5B1EF9D12B0705D40023521EF9
:1001C0000DD401F8013BFAE710F8013BCB1A921C61
:1001D00003E013F8015B01F8015B521EF9D5A1425F
:1001E000D8D3002070BDFEE77047012000F022B890
:1001F00072B6FEE770B5044600F026F90546601CAD
:1002000002D004480078044400F01EF9401BA042CC
:10021000FAD370BD0C000020012805D10349887075
:100220008021034800F002B9704700000000002060
:10023000000C0140044910B50A68024202D008606F
:10024000FFF7EAFF10BD0000140401402DE9F84F4C
:10025000DFF8B891002409F1040A0AF1040B2346DF
:100260000F270BF1040EC9E00125A5402A40AA4240
:100270007DD1674ED1F804C0ACEB0608B44532D04E
:1002800014DCBCF1030F3AD009DCBCF1000F2AD01A
:10029000BCF1010F1CD0BCF1020F31D11DE0BCF14B
:1002A000110F17D0BCF1120F2AD119E0B8F5881F31
:1002B00019D006DCB8F5803F15D0B8F5801F1FD1E6
:1002C00011E0B8F5001F0ED0B8F5041F18D10AE0F0
:1002D000CB6815E0CB681B1D12E0CB6808330FE03C
:1002E000CB680C330CE08B682BB1012B4FF008036B
:1002F00003D0456104E0042302E0056100E000232F
:10030000FF2A01D8064601E000F104064FEA840501
:1003100001D9A5F12005D6F8008007FA05FC28EAE6
:100320000C0803FA05F548EA0508C6F800804D6890
:10033000ED0062D5374DAE6946F00106AE61AD699C
:1003400024F0030605F001050095334D06EB050C7E
:10035000DCF80850A607360F07FA06F825EA080564
:10036000DFF8B880404503D14FF0000817E044E0C3
:10037000DFF8AC80404502D14FF001080FE0DFF814
:10038000A480404502D14FF0020808E0DFF89880D1
:10039000404502D14FF0030801E04FF0040808FA8D
:1003A00006F848EA0508CCF808804D68D9F80060DE
:1003B000ED034D4601D5164300E096432E604D688F
:1003C000DAF80060AD03554601D5164300E09643C8
:1003D0002E604D68DBF80060ED025D4601D51643E6
:1003E00000E096432E604D68DEF80060AD02754671
:1003F00001D5164300E096432E60641C0D682A4622
:10040000E5407FF431AFBDE8F88F00000004014003
:1004100000001110001002400000014000080140DF
:10042000000C01400010014000140140C26821EAA4
:1004300002030A4043EA0241016170470AB10161C7
:1004400070470904FBE7000001488068704700001E
:100450000C000020024881680278114481607047D6
:100460000C000020074810B5016841F01001016040
:10047000032000F079F8002000F006F800F024F8DE
:10048000002010BD0020024070B50D4D04464FF411
:100490007A712878B1FBF0F00A490968B1FBF0F0F5
:1004A00001F02CF848B9102C07D200222146501E2A
:1004B00000F03AF800206C6070BD012070BD0000B3
:1004C0000C000020180000200E4808B5816941F09A
:1004D00001018161816901F001010091C16941F06F
:1004E0008051C161C06900F080500090052000F08B
:1004F0003BF80548416821F0E06141F0007141603E
:1005000008BD00000010024000000140002809DB87
:1005100000F01F02012191404009800000F1E0201D
:10052000C0F8001170470000F0B40E4B1B680C4679
:10053000C3F30223C3F10705042D00D90425191DB7
:10054000072901D2002300E0DB1E012606FA05F18F
:10055000491E214099409E40761E16403143F0BC12
:1005600003F0CCB90CED00E0064900F00702086882
:100570004FF6FF03184040EA0220034A1043086088
:10058000704700000CED00E00000FA0510B50C0605
:1005900007D501F0070101EB810100EBC100283014
:1005A00005E001EB810100EBC10000F5B47099B2E8
:1005B00032B1012202730181190C4181002010BD6A
:1005C00000220273C180F9E7704701EB810200EB62
:1005D000C202D0F8E802D26B02F0BFB801EB810290
:1005E00000EBC202D0F8E802D2F87C2102F018B980
:1005F00070B504460B0601F0070000EB800104EB28
:10060000C1014FF001024FF0000503D581F8292008
:10061000283103E081F8695101F5B471087094F84C
:10062000A802012808D084F8A822206802F028FD3A
:1006300084F8A852002070BD022070BD70B5044639
:1006400001F00F006268904201D9012070BD0B06D5
:1006500001F0070000EB800104EBC1014FF0010243
:100660004FF0000503D581F82920283103E081F8F7
:10067000695101F5B4718D70087094F8A8020128D1
:1006800008D084F8A822206802F097FD84F8A852C8
:10069000002070BD022070BD2DE9F05F04685FEAA4
:1006A000424C0B788D69B4F850C04FF000064BF601
:1006B0008F7948F2800A48F68F7B48F2C00E4FF4DB
:1006C00080672AD54FF0020808EBC308C44407EB43
:1006D0004C07E45BC4F30904A54203D32D1B8D61D1
:1006E00001D00BE08E61066836F8235005EA090553
:1006F00085F4005545EA0A0526F82350520609D527
:100700000D78036833F8252002EA0B0242EA0E0254
:1007100023F8252084B30A8929E04FF0060808EB66
:10072000C308C44407EB4C07E45BC4F30904A542C7
:1007300003D32D1B8D6101D00BE08E61066836F866
:10074000235005EA090585F4005545EA0A0526F80F
:100750002350520609D40B78056835F8232002EAA5
:100760000B0242EA0E0225F823202CB14A8949697E
:100770000068234603F090F82046BDE8F09F2DE97D
:10078000F05F054600680C465FEA426C16468B69CE
:100790002278B0F850C048F68F774CF280094FF6B7
:1007A000FF7B4FF4004E4FF4806A4FF000017BD581
:1007B0004FF0020808EBC208E0440AEB480C30F89E
:1007C0000C00C0F30900834211D91B1AA3610FD09A
:1007D000730407D52E6836F822303B4043EA0903FC
:1007E00026F8223094F82420012A50D04EE1A1614D
:1007F000607810B1012813D01AE02868B0F85030A2
:10080000184400EB0210B0F8042422F4F842A0F8D7
:100810000424B0F8042442F40042A0F8042407E0C1
:100820002868B0F85030184400EB0210A0F8041407
:100830006278286812B1012A11D018E0B0F850107F
:100840000844217800EB0110B0F80C1421F4F841B1
:10085000A0F80C14B0F80C1441F4004105E0B0F815
:1008600050201044227800EB0210A0F80C142178DC
:100870002846FFF7AAFE7004B8D521782A6832F816
:100880002100384040EA090022F82100FEE06269B8
:1008900002446261E2690244E2612369226A9A4287
:1008A00003D31846111A04E038E084F824100AB182
:1008B00010462162617811B1012923D02BE029680B
:1008C000B1F850201144227801EB021101F20441E9
:1008D00048B13E280FD84208C30700D0521C0BEA8B
:1008E00082220A8017E00A8822F4F8420A800A88E5
:1008F00042F40042F5E74209C30600D1521E4EEA17
:100900008222EEE72968B1F850201144227801EBE9
:100910000211A1F8040483B22289B3E04FF0060863
:1009200008EBC208E0440AEB480C30F80C00C0F3B6
:100930000900834211D31B1AA3610FD0730407D49B
:100940002E6836F822303B4043EA090326F822306D
:1009500094F82420012A50D098E0A161607810B169
:10096000012813D01AE02868B0F85030184400EB82
:100970000210B0F8042422F4F842A0F80424B0F8DD
:10098000042442F40042A0F8042407E02868B0F8E8
:100990005030184400EB0210A0F804146278286864
:1009A00012B1012A11D018E0B0F850100844217893
:1009B00000EB0110B0F80C1421F4F841A0F80C146D
:1009C000B0F80C1441F4004105E0B0F85020104498
:1009D000227800EB0210A0F80C1421782846FFF7CB
:1009E000F4FD700452D42278296831F8220038408E
:1009F00040EA090021F8220048E06269024462618D
:100A0000E2690244E2612369226A9A4203D31846EA
:100A1000111A216204E00AB11046216284F8241000
:100A20006278296812B1012A22D029E0B1F8502059
:100A30001144227801EB021101F20C4148B13E2829
:100A40000FD84208C30700D0521C0BEA82220A804A
:100A500016E00A8822F4F8420A800A8842F400422A
:100A6000F5E74209C30600D1521E4EEA8222EEE7A4
:100A7000B1F850201144227801EB0211A1F80C04C6
:100A8000628983B26169286802F024FF21782A68AC
:100A900032F8210048F6BF73184080F0300048F269
:100AA0008003184322F821000020BDE8F09F2DE9C3
:100AB000F04104460F0601F0070000EB800104EB53
:100AC000C1014FF001064FF0000503D581F8296000
:100AD000283103E081F8695101F5B47108700A61A9
:100AE000CB704A7802B1C881022B00D10D7194F805
:100AF000A802012809D084F8A862206802F092F9BF
:100B0000284684F8A852BDE8F0810220FBE770B5C2
:100B10000C4601F0070505EB850100EBC101C1E9B9
:100B20005F230022C1F8842181F8692181F868518E
:100B300001F5B4716207006802F094FB002070BDFB
:100B400070B504460D4601F007006168884201D97E
:100B5000012070BD29064FF000064FF0010207D5B5
:100B600000EB800104EBC10181F82920283107E066
:100B700005EB850104EBC10181F8696101F5B471F0
:100B80008A70087094F8A802012807D084F8A82277
:100B9000206802F04EFB680702D006E0022070BD1C
:100BA00004F52C71206802F006FB84F8A86200208E
:100BB00070BD70B50C4601F0070505EB850100EB33
:100BC000C101C1E90F23012281F84C208B6400236D
:100BD0004B6481F8292001F8285F6207006802F061
:100BE00041FB002070BD1FB50446006802F050FEB6
:100BF000000402D5204601F069F8206802F048FEA2
:100C000040050CD5206830F8441F21F48061018034
:100C1000204600F01FF90021204600F036F9206838
:100C200002F036FE400405D5206830F8441F21F458
:100C300080410180206802F02BFE800405D52068E9
:100C400030F8441F21F400510180206802F020FE9A
:100C5000C00414D5206830F8401F21F00401018041
:100C6000206830F8401F21F008010180204600F084
:100C700004F9206830F8441F21F480510180206875
:100C800002F006FE00053ED522680020694632F8D3
:100C9000203021F81030401CC0B20828F7D332F8B9
:100CA000400F40F001001080206830F8402F22F003
:100CB000010202802068B0F844205205FBD530F8CC
:100CC000442F22F4806202800020236831F8102033
:100CD00023F82020401CC0B20828F6D3206830F842
:100CE000401F41F008010180206830F8441F21F4C2
:100CF00000610180206830F8401F41F0040101804C
:100D0000204600F0F7F8206802F0C2FD800508D503
:100D1000206830F8441F21F400710180204600F063
:100D2000B0F8206802F0B4FDC00505D5206830F8A1
:100D3000441F21F4807101801FBD00002DE9F041A6
:100D400086B0040004D094F8A902002520B108E080
:100D5000012006B0BDE8F08184F8A852204600F0DA
:100D60005BF8032084F8A902206802F01DFA04F160
:100D70001001142288466846FFF7D4F994E80F0062
:100D800002F07CF90226D0BB0021206802F09AFD17
:100D9000002001270FE000BF00EB800104EBC10140
:100DA00081F8297001F8280FC881CD700D614D615F
:100DB000401CC0B28D6161688142EDD8002011E015
:100DC00000EB800104EBC10181F8695181F86801F1
:100DD00081F86B51C1F87851C1F87C51401CC0B208
:100DE000C1F8805161688142EAD8142241466846C0
:100DF000FFF798F994E80F0002F0CDF910B184F8EC
:100E0000A962A5E784F8245084F8A972206802F04A
:100E1000C0F900209DE7000008B500680B49884232
:100E200012D10B48C16941F40001C161C0690022BF
:100E300000F40000009011461420FFF775FBBDE898
:100E400008401420FFF762BB08BD0000005C0040B2
:100E50000010024070B5044680680125022801D0C8
:100E6000FFF7C6F92946D4F8E80201F0B2FDD4F83C
:100E7000E802BDE8704001F06EBDD0F8E80201F074
:100E800092BDD0F8E80201F098BD10B5044690F884
:100E9000A80201280BD0012084F8A80284F82410AD
:100EA000206802F011FD002084F8A80210BD022085
:100EB00010BDD0F8E82200F52C71104601F095BD68
:100EC00010B5044690F8A802012810D0012084F83B
:100ED000A802206802F0CCFC01212046FFF774FB39
:100EE000206802F054F9002084F8A80210BD022006
:100EF00010BD000010B50446D0F8E80201F0B4FDC2
:100F0000A069002804D00348016841F0060101608F
:100F100010BD000010ED00E02DE9F8430546007813
:100F2000354CC00754D0E0690026C00008D4E06901
:100F300040F08050E061E069012600F080500090B0
:100F40002E480168C90512D40168804641F48071B9
:100F50000160FFF779FA074605E000BFFFF774FA72
:100F6000C01B642823D8D8F80000C005F6D5206A35
:100F700010F4407021D0A98801F4407181421CD046
:100F8000206A1F49012220F440700A6000220A6092
:100F90002062C00711D0FFF757FA074641F28838A0
:100FA00008E000BFFFF750FAC11B414502D90320FA
:100FB000BDE8F883206A8007F4D5206A696820F4C8
:100FC0004070084320621EB1E06920F08050E0616B
:100FD0002878800705D56068A96820F44040084358
:100FE00060602878C00605D56068E96820F4800054
:100FF000084360600020DBE7001002400070004002
:10100000400442422DE9F0470F46050061D0434EAF
:10101000306800F00700B84209D2306820F00700BD
:1010200038433060306800F00700B84251D128687A
:101030003B4C810712D5400703D5606840F4E0605F
:1010400060602878000703D5606840F460506060F5
:101050006068A96820F0F000084360602878C00745
:1010600028D06868012810D02168022810D089078C
:1010700000292EDA616821F0030101436160FFF766
:10108000E3F9804641F288390DE021688903EFE7F2
:101090008901EDE7FFF7D8F9A0EB0801494502D92E
:1010A0000320BDE8F0876068696800F00C00B0EBD1
:1010B000810FEFD1306800F00700B8420BD93068DB
:1010C00020F0070038433060306800F00700B84275
:1010D00001D00120E5E72878400705D56068E96878
:1010E00020F4E060084360602878000706D5606857
:1010F000296920F4605040EAC100606000F038F8CF
:101100006168084AC1F30311515CC8400649086090
:1011100006480068FFF7B8F90020C2E70020024047
:1011200000100240A03A0008180000201000002023
:101130000448054900684968044AC1F30221515C2A
:10114000C84070471800002000100240B03A000864
:101150000448054900684968044AC1F3C221515C4A
:10116000C84070471800002000100240B03A000844
:1011700012A185B00FC98DE80F0014A0144A0068B1
:1011800004905168134801F00C03042B10D0082B75
:101190000ED1C1F38343C9031DF803000AD551687A
:1011A00004AAC1F34041515C0A4A5043B0FBF1F03C
:1011B00005B0704708494843FAE7000002030405F8
:1011C000060708090A0B0C0D0E0F10100102000093
:1011D0000010024000127A0000093D002DE9F84F8E
:1011E000040070D02078C04DC00749D06868C0F3B3
:1011F0008100012807D06868C0F38100022809D166
:101200006868C00306D52868800339D5606800285F
:10121000E7D035E06068B0F5803F0BD010B1B0F595
:10122000A02F11D0286820F480302860286820F48E
:10123000802002E0286840F480302860606890B127
:10124000FFF702F906460AE0286840F4802028608B
:10125000F0E700BFFFF7F8F8801B642873D8286810
:101260008003F7D50CE0FFF7EFF8064605E000BF76
:10127000FFF7EAF8801B6428F0D828688003F7D4C9
:1012800020789A4E80074FF001094FF0000839D5B9
:10129000686810F00C0F07D06868C0F3810002285E
:1012A00009D16868C00306D42868800714D520696E
:1012B000012808D110E02069B0B1C6F80090FFF70E
:1012C000C3F8074605E00AE1FFF7BEF8C01B022895
:1012D000C4D828688007F7D52868616920F0F8002D
:1012E00040EAC10028600DE0C6F80080FFF7ACF8C6
:1012F000074604E0FFF7A8F8C01B022823D8286897
:101300008007F7D4207800072CD57948A169D9B196
:10131000C0F80090FFF798F8074604E0FFF794F84C
:10132000C01B02280FD8686A8007F7D571484FF4B0
:10133000FA510068B0FBF1F0009000BF0098411E28
:101340000091FAD20EE080E0C0F80080FFF77CF850
:10135000074604E0FFF778F8C01B022875D8686AD2
:101360008007F7D42078400760D5E8690027C000DF
:1013700008D4E86940F08050E861E869012700F08E
:10138000805000905C480168C90513D40168834609
:1013900041F480710160FFF757F8824606E000BF14
:1013A000FFF752F8A0EB0A0064284ED8DBF80000E3
:1013B000C005F5D5E06801280AD008B1052813D08A
:1013C000286A20F001002862286A20F0040002E068
:1013D000286A40F001002862E06841F2883B98B139
:1013E000FFF732F882460BE0286A40F004002862DA
:1013F000EEE700BFFFF728F8A0EB0A0159455AD8DD
:10140000286A8007F6D50CE0FFF71EF8824605E053
:10141000FFF71AF8A0EB0A0159454CD8286A800753
:10142000F6D41FB1E86920F08050E861E06988B324
:101430006968C1F38101022944D00228C6F860809E
:1014400004D0FFF701F8044638E034E0FEF7FCFF73
:10145000074604E0FEF7F8FFC01B02282BD82868D7
:101460008001F7D4206AB0F5803F05D16868A16893
:1014700020F4003008436860D4E908010843696833
:1014800021F4741108436860C6F86090FEF7DCFF31
:10149000044606E025E000BFFEF7D6FF001B022849
:1014A00009D828688001F7D51BE000BFFEF7CCFF04
:1014B000001B022802D90320BDE8F88F28688001AC
:1014C000F4D40EE00128F7D06868226A00F4803175
:1014D000914204D1616A00F47010884201D0012069
:1014E000EAE70020E8E70000001002400000424266
:1014F00080044242180000200070004010B5401ED9
:10150000B0F1807F01D3012010BD4FF0E024606175
:101510000F21601702F0F2F90020A061072020617E
:10152000002010BD70B590F83C20012A26D001247F
:1015300080F83C40022280F83D2003685A689D688C
:1015400022F070060A6832435A600D4B02689A42D4
:1015500008D0B2F1804F05D00A4B9A4202D00A4B14
:101560009A4204D1496825F080031943916080F8BC
:101570003D40002180F83C10084670BD022070BD3F
:10158000002C014000040040000800402DE9F0411B
:101590000D46040003D094F83D0018B108E0012086
:1015A000BDE8F081002084F83C00204600F040F8BF
:1015B000022084F83D002068816844F207029143CC
:1015C0008160211D206800F04BFD226890689169C0
:1015D000166A2B68AF69034340F20330814341EA46
:1015E0000721A868EF6908434FF6FC418843E96882
:1015F00040EA0720014328692F6A000140EA0730CA
:10160000084369686D6926F0220646EA05152943F4
:1016100093602268906154F8460B0162012004F83F
:101620001F09E0752076E0762077A0750020B7E7E7
:1016300000B585B0002100910191029103910068ED
:101640000D49884216D10D48C16941F00201C161BE
:10165000C16901F002010491816941F004018161D5
:101660008069694600F004000490C020009004489E
:10167000FEF7ECFD05B000BD000400400010024084
:101680000008014070B590F83E60044690F83F5065
:1016900090F8423090F84320022021B104290ED066
:1016A000012E1BD114E0012E18D1012B16D184F884
:1016B0003E0084F8420001220021206820E0012D34
:1016C0000CD1012A0AD184F83F0084F8430014E0C9
:1016D000012D03D1012B01D1012A01D0012070BDC0
:1016E00084F83E0084F83F0084F8420084F8430008
:1016F00001220021206800F0E9FC01220421206879
:1017000000F0E4FC2068016841F001010160002064
:1017100070BD000000B585B00021009101910291DB
:1017200003910068B0F1804F11D10A48816941F0FE
:10173000040181618069694600F00400049006207C
:1017400000900220019003900348FEF77FFD05B052
:1017500000BD0000001002400008014070B50446C2
:1017600090F83C000D4601280AD0012084F83C0086
:1017700042B1042A18D0082A2AD00C2A4DD139E0C7
:10178000022070BD206800F0AFFC2068816941F044
:10179000080181612068816921F00401816120686C
:1017A00081692A69114311E0206800F0C5FC2068B6
:1017B000816941F4006181612068816921F480615F
:1017C0008161206881692A6941EA0221816124E0FE
:1017D000206800F0DDFC2068C16941F00801C161AA
:1017E0002068C16921F00401C1612068C1692A69CA
:1017F000114311E0206800F0F7FC2068C16941F452
:101800000061C1612068C16921F48061C161206803
:10181000C1692A6941EA0221C161002084F83C00C3
:1018200070BD10B5040003D094F83D0010B107E07E
:10183000012010BD002084F83C00204600F01EF876
:10184000022084F83D00211D206800F009FC0120E1
:1018500084F8460084F83E0084F83F0084F8400095
:1018600084F8410084F8420084F8430084F844007E
:1018700084F8450084F83D00002010BD08B50068DC
:10188000B0F1804F08D10548C16941F00101C16143
:10189000C06900F00100009008BD00000010024087
:1018A00010B50446022249B104290ED0082913D0EC
:1018B00094F84100012816D0012010BD94F83E0094
:1018C0000128F9D184F83E200FE094F83F00012868
:1018D000F2D184F83F2008E094F840000128EBD1D1
:1018E00084F8402001E084F841200122206800F0C3
:1018F000EDFB0F492068884203D1426C42F400425C
:1019000042642068884208D0B0F1804F05D0094970
:10191000884202D00849884204D1816801F0070159
:10192000062903D0016841F001010160002010BDCB
:10193000002C0140000400400008004030B504467F
:101940000D460068002200F0C1FB174B41F2111157
:1019500020688A10984209D1036A0B4206D1036AB3
:10196000134203D1436C23F4004343642068036AA9
:101970000B4206D1016A114203D1016821F0010135
:10198000016001203DB1042D08D0082D09D084F854
:101990004100002030BD84F83E00FAE784F83F00A3
:1019A000F7E784F84000F4E7002C014070B504002C
:1019B00004D094F83D00002510B106E0012070BD70
:1019C00084F83C50204600F023F8242084F83D00A1
:1019D0002068C16821F40051C160204600F026FC57
:1019E0002068016921F4904101612068416921F07A
:1019F0002A0141612068C16841F40051C160256439
:101A0000202084F83D0084F83E00002070BD0000D6
:101A100030B585B0002400940194029403940068CA
:101A20001449884224D11448816941F4804181617C
:101A3000816901F480410491816941F0040181616F
:101A400080690E4D00F0040004904FF40070009087
:101A5000022001900320039069462846FEF7F6FB1A
:101A60002815CDE90004694628460294FEF7EEFBEE
:101A700005B030BD003801400010024000080140B0
:101A8000FEE70000F0B500230A24302537261F4664
:101A900011E000BFB4EB107F02D905EB107C01E030
:101AA00006EB107C01F813C001EB430C00015B1C3A
:101AB0008CF80170DBB29342ECD3F0BDF0B585B089
:101AC000002524480095019502950395816941F010
:101AD00010018161816901F010010491816941F077
:101AE00020018161816901F020010491816941F047
:101AF00004018161816901F004010491816941F06F
:101B0000080181618069144F00F008004FF4865687
:101B10000490002231463846FEF790FC01240F481D
:101B20006946CDE900400E480294FEF78FFB022083
:101B3000CDE90250CDE9006469463846FEF786FBE0
:101B4000002211460620FEF7EFFC0620FEF7DEFC21
:101B500005B0F0BD00100240000C01400000111063
:101B60000008014010B58AB0002407941C21684683
:101B70000894FEF7F0FA1A484FF08041016041F6F0
:101B80001F41C0E901146321C0E903148461FFF718
:101B900048FE08B1FEF72CFB079407A910480894EB
:101BA000FFF7C0FC08B1FEF723FB60200090322055
:101BB000CDE901040422694609480494FFF7CEFDEB
:101BC00008B1FEF715FB082269460548FFF7C6FD78
:101BD00008B1FEF70DFB0248FFF79CFD0AB010BDEF
:101BE0006001002010B58CB024216846FEF7B3FADE
:101BF00000241648099414490A94C0E900144FF4CB
:101C00007A71C0E902418021046181610120CDE93E
:101C10000004CDE902040F210491CDE90540CDE98E
:101C2000074169460948FFF7B1FC08B1FEF7E0FA41
:101C3000099409A905480A94FFF774FC002801D00B
:101C4000FEF7D6FA0CB010BD00040040A801002039
:101C50000C4810B50A4901604FF4E13141600021A0
:101C600081600C22C160C0E904128161C161FFF78B
:101C70009DFE002803D0BDE81040FEF7B9BA10BDA4
:101C800000380140F001002010B500220B490C483B
:101C900000F03CFD08B1FEF7ABFA0A49084800F035
:101CA00009FF08B1FEF7A4FA054800F059FF002823
:101CB00003D0BDE81040FEF79BBA10BD1C00002009
:101CC000340200206C000020FEE7FEE72DE9F84F0B
:101CD000044640F68F7B48F60F7A4FF002094FF426
:101CE000806874E1B0F8441011F00F063AD030F873
:101CF000267039047DD530F8261001EA0B0141F039
:101D0000800120F8261006EB860004EBC00595F84C
:101D1000740105F5B47500286CD0E87802286AD003
:101D20002878226832F8201048F68F73194048F25C
:101D3000C003194322F820102878D4F800C03CF8DA
:101D40002010BCF8502049047ED509EBC0001118C2
:101D500008EB41003CF800008005800D009074D035
:101D60002A89D8E0C9062DD4018801EA0A0141F484
:101D700000410180216804F12805B1F850202B783A
:101D800009EBC300024408EB4200085AC0F3090003
:101D90006064E16B0844E06300212046FEF715FC17
:101DA00094F8240000289CD0A869002899D194F8C0
:101DB0002400216840F08000A1F84C00002084F845
:101DC000240004E1018804F5B4750A0521D5B0F8B2
:101DD00050202B78062101EBC3010A4408EB420195
:101DE000405A04F52C71C0F30903EB61EA882068BE
:101DF00002E0ACE068E07AE001F04EFD216808887E
:101E000000EA0B0040F0800008802046FFF751F800
:101E1000DDE00904D5D5018801EA0B0141F080011C
:101E200001802068B0F850202B78062101EBC30117
:101E30000A4408EB4201405A83059B0DEB6110D028
:101E4000696971B1EA8801E058E056E0206801F064
:101E500023FDE96968690844686100212046FEF7AE
:101E6000BDFB2068018809052DD4B0F85010084446
:101E7000296900F20C4051B13E2910D84A08C9071F
:101E800000D0521C4FF6FF7101EA82210FE0018859
:101E900021F4F8410180018841F4004107E04A093A
:101EA000C90600D1521E4FF4004141EA822101804F
:101EB000206801884BF68F72114081F4405148F23E
:101EC00080021143018082E0D4F800C0BCF85010B9
:101ED0002A78062000EBC200014408EB41003CF8E0
:101EE00000008005800D00901AD0EA8813E03A4681
:101EF00029462046FEF7D0FB009011E0062101EBB9
:101F0000C000111808EB41003CF800008005800D6E
:101F1000009005D06A8903466046696901F0BCFCFF
:101F2000E96900980844E8616969009808446861B3
:101F3000A86918B129690098814204D929782046F6
:101F4000FEF74CFB03E02946206801F08BF93806C8
:101F50003DD506EB860004EBC001206830F8262052
:101F600002EA0A0242F4004220F8262091F82B00EF
:101F70002831032804D018B1022824D1F80522D42E
:101F80002368B3F850200D7809EBC500024408EB34
:101F90004200185A8A69C0F3090082420CD9121A09
:101FA0008A610BD04A6902444A61CA691044C86117
:101FB000206801F057F90AE000208861E9B2204664
:101FC000FEF703FB03E03A462046FEF7D8FB206805
:101FD000B0F8441009043FF585AE0020BDE8F88F45
:101FE00070477047FEF736BA30B593B0282168467F
:101FF000FEF7B1F814210AA8FEF7ADF8002401207D
:102000000F9410941194010412948DE8130004901D
:102010004FF4E010CDE90810022507956846FFF758
:10202000DDF808B172B6FEE70F20CDE90A054FF4DE
:102030008060CDE90C4002210AA80E94FEF7E2FF71
:1020400008B172B6FEE710200F9012940FA8FEF7A9
:1020500063FF002801D072B6FEE713B030BD7047B1
:10206000F0B50268164B174C174D4FF08047984259
:1020700005D0B84203D0A04201D0A84203D122F03B
:1020800070064A683243984205D0B84203D0A04255
:1020900001D0A84203D122F44074CA6822434C699B
:1020A00022F08002224302608A68C2620A68826269
:1020B000984201D10969016301214161F0BD00002D
:1020C000002C0140000400400008004010B501F061
:1020D0001F030121046A99408C430462016A9A40FB
:1020E0001143016210BD000030B5026A22F0010206
:1020F0000262026A4368846924F073050C682C4309
:1021000022F002058A682A430A4DA8420BD122F028
:102110000805CA6823F440732A434D6922F004027B
:102120001D438B692B4343608461496841630262AC
:1021300030BD0000002C014030B5026A22F01002D0
:102140000262026A436884690D6824F4E64444EA42
:1021500005248D6822F0200242EA05120B4DA842A8
:102160000ED1CD6822F0800242EA05124D6923F4B7
:10217000406343EA85038D6922F0400243EA850308
:102180004360846149688163026230BD002C014074
:1021900030B5026A22F480720262036A4268C4693E
:1021A00023F4007324F073050C682C438D6843EA14
:1021B00005230C4DA8420ED1CD6823F4006343EAF9
:1021C00005234D6922F4405242EA05128D6923F439
:1021D000806342EA05124260C4614968C1630362D8
:1021E00030BD0000002C014030B5026A22F480525C
:1021F0000262046A4268C3690D6823F4E64343EA55
:1022000005238D6824F4005444EA0534064DA842A1
:1022100004D14D6922F4804242EA85124260C361D2
:1022200049680164046230BD002C014070B5044669
:1022300000680169E26821F440511143016121699C
:10224000A0680843616908432168CA6841F20C63C9
:102250009A430243CA6020684169A26921F440712F
:10226000114341611E492068884202D1FEF770FF88
:1022700001E0FEF75DFF00EBC00101EB00126068BA
:1022800064218000B2FBF0F3B3FBF1F36FF01806AA
:102290007343B2FBF0F5B2FBF0F605EB8305322396
:1022A00003EB0515B5FBF1F5B6FBF1F605F0F0050E
:1022B00005EB0615B2FBF0F6B2FBF0F0B0FBF1F067
:1022C0006FF01802504306EB800003EB0010B0FBE8
:1022D000F1F0216800F00F002844886070BD000014
:1022E0000038014010B5D0F8B42252689047002061
:1022F00010BD134610B50A46002100F023FB002054
:1023000010BD134610B50A46002100F0B6FB0020B0
:1023100010BD10B50446802100F094FB2046BDE8B6
:102320001040002100F08EBB10B505210023C0F83D
:1023300094121A46194600F005FB002010BD10B596
:102340000223C261C0F89432026213460A46002199
:1023500000F093FB002010BD10B504210023C0F84D
:1023600094121A46194600F088FB002010BD0000A8
:1023700010B50A46024903A000F0DEF8004810BD7F
:10238000F804002048494420436F6E6669670000E6
:1023900012200880004870473C00002010B50A4613
:1023A000024903A000F0C8F8004810BDF80400205E
:1023B00048494420496E7465726661636500000097
:1023C00004200880004870473800002010B50A46F5
:1023D000024903A000F0B0F8004810BDF804002046
:1023E00053544D6963726F656C656374726F6E6987
:1023F0006373000010B50A46024903A000F09CF880
:10240000004810BDF804002053544D20454331319D
:10241000204354524C00000010B51A2008800A488E
:102420000168001D0468001D0068081809D0082212
:102430000649FFF727FB0549042210312046FFF724
:1024400021FB0248801E10BDE8F7FF1F520000204C
:10245000F8B504460020ADF8000048880D46010A92
:10246000082948D2DFE801F04704091747473C45EF
:10247000D4F8B012207C0A6819E0207C02260028DB
:10248000D4F8B40205D0C16A684688470146467050
:102490003EE0816AF8E7C0B206282CD2DFE800F0FF
:1024A000030A1014181CD4F8B002426805E069460B
:1024B00090471CE0D4F8B0028268E2B1207CF6E7D5
:1024C000D4F8B002C268F8E7D4F8B0020269F4E7C1
:1024D000D4F8B0024269F0E7D4F8B0028269ECE7C0
:1024E000207C40B9D4F8B402416B68468847014665
:1024F0000EE0207C20B129462046FFF70AFFF8BDF8
:10250000D4F8B402016B684688470146072048703A
:10251000BDF8000048B1EA8852B1824200D90246B3
:10252000ADF800202046FFF70AFFE8880028E6D132
:102530002046FFF711FFF8BD70B5002300281ED01C
:102540000446002502E06D1CEDB2641C2678002EC6
:10255000F9D1022404EB450414801278CA545B1CA0
:102560000322CA5400245B1C06E0CA545B1CDAB286
:102570008C54521CD3B2401C0278002AF5D170BD95
:1025800001004FF0000004D0012901D0022901D040
:102590000220704701207047D0F8B8020021017373
:1025A0000846704770B50446812100F0CDF800253B
:1025B000E562D4F8B80218B100F02FFCC4F8B852A4
:1025C000002070BD0A210180004870471C010020D6
:1025D0002221018000487047A400002022210180B0
:1025E00000487047C8000020222101800048704741
:1025F000EC00002010B5044604230322812100F0E2
:1026000095F90120E062102000F008FCC4F8B8023F
:1026100018B100210173084610BD022010BD10B58D
:10262000134690F89C42D0F8B822032C07D1147BB3
:102630002CB9012414730A46812100F01EFA0020EF
:1026400010BD000038B503460022D0F8B802ADF83E
:10265000002014460A7812F0600216D0202A4AD1CF
:102660004A78022A0ED0032A06D00A2A06D00B2A5C
:1026700041D18978016042E001222BE04988090AB2
:1026800041603CE00122011D25E04A7832B1062A72
:102690000BD00A2A23D00B2A2DD128E093F89C02D4
:1026A000032828D10222694615E048882222B2EB8D
:1026B000102F05D1CA88382A00D93822124809E0DB
:1026C0002122B2EB102F16D10F48CA881838092AD8
:1026D00000D9092201461846FFF731FE0FE093F8B2
:1026E0009C22032A07D1012200F10801F3E793F8A5
:1026F0009C22032A05D01846FFF70BFE0224204631
:1027000038BD89788160FAE72801002010B580B1D2
:10271000D0F8B43213B10023C0F8B43209B1C0F814
:10272000B012012180F89C12027000F0BBF800206A
:1027300010BD022010BD10B5D0F8C002FDF77EFF1D
:10274000BDE81040FFF71CBF10B5D0F8C002FDF780
:102750004FFFBDE81040FFF713BF2DE9F0411746CA
:10276000044651B1D4F8B40242691AB194F89C02FB
:10277000032851D00220BDE8F081D4F8943200251E
:1027800004F11400022B03D0042B3AD0C3B33CE075
:10279000D0E903639E4207D9F11AC1608AB2394673
:1027A0002046FFF7AEFD12E08068B0FBF3F103FBBB
:1027B000110199B9984211D3D4F8981288420DD2D8
:1027C000002211462046FFF79CFDC4F898520023D2
:1027D0001A461946204600F0B5F816E0D4F8B402BF
:1027E000C16829B194F89C02032801D1204688478A
:1027F0008021204600F026F92046FFF795FD04E0F1
:10280000FFE78021204600F01DF994F8A00201287E
:1028100004D184F8A05201E0204690470020AAE7A6
:1028200070B51546044649B1D4F8B40282691AB1AC
:1028300094F89C02032830D0022070BDD4F8941282
:1028400004F5AA70032902D005291ED027E0D0E99B
:1028500003218A420BD9531AC3600846834200D32E
:1028600003469AB229462046FFF743FD17E0D4F805
:10287000B402016929B194F89C02032801D12046D1
:1028800088472046FFF768FD09E000200146C4F8AC
:102890009402204600F0D6F801E020469047002040
:1028A00070BD000010B517490446C1F8E802C0F831
:1028B000C012154808600820486002208860002087
:1028C0008861C86108620846FEF738FA08B1FDF76A
:1028D0008FFC0022D4F8C0021823114604F530748E
:1028E000FDF754FE5823002280212068FDF74EFE9C
:1028F0004FF48073002281212068FDF747FE0020FD
:1029000010BD00000C070020005C00400A0601F02A
:102910007F01D0F8C00201EB810100EBC10002D5BC
:1029200090F82A00704790F86A01704710B51C466D
:102930001346D0F8C0022246FEF7B9F8BDE81040B1
:10294000FFF71EBE10B5D0F8C002FEF7E0F8BDE8F4
:102950001040FFF715BE70B5002204464023114613
:10296000FFF7E4FF40260125C4F8646133460022E6
:1029700080212046C4F85851FFF7D8FF6662A56150
:1029800084F89C520020C4F894026060C4F8A40249
:10299000D4F8B80228B1D4F8B40200214268204625
:1029A0009047002070BD90F89C12042903D190F844
:1029B0009D1280F89C120020704710B590F89C1270
:1029C000032904D1D0F8B412C96901B188470020A5
:1029D00010BD01740020704710B5D0F8C002FEF79A
:1029E00054FABDE81040FFF7CBBD70B5044600F5C2
:1029F0002A70054600F04AF80120C4F89402B4F8A1
:102A0000AE02C4F8980294F8A80210F01F010AD090
:102A100001290DD0022910D000F08001204600F0DD
:102A200011F8002070BD2946204600F09EF8F8E716
:102A30002946204600F0CAF9F3E72946204600F06F
:102A40001DF9EEE710B5D0F8C002FEF779F8BDE841
:102A50001040FFF795BD10B5D0F8C002FEF730FA70
:102A6000BDE81040FFF78CBD90F89C1280F89D12D5
:102A7000042180F89C120020704710B5D0F8C002E5
:102A8000FEF797F8BDE81040FFF77ABD0A780270AC
:102A90004A7842708A78CB7802EB032242800A7926
:102AA0004B7902EB032282808A79C97902EB0121FA
:102AB000C18070470246002011B1C2F8B4127047BD
:102AC0000220704710B5D0F8B42202241AB112685F
:102AD000904700B90024204610BD000070B50E4696
:102AE0001E4D897804462970012931D894F89C023A
:102AF00002280BD003280FD031462046FFF709FCEF
:102B000029782046BDE87040FFF7ECBBD9B103201F
:102B1000616084F89C0209E071B16068884212D05B
:102B2000C1B22046FFF7DEFB297861602046FFF73F
:102B3000C9FF02280CD006E0022084F89C0220463F
:102B40006160FFF7CFFB2046BDE87040FFF704BC93
:102B500031462046BDE87040FFF7DBBB6A0000202D
:102B600010B5FFF778FF002010BD2DE9F0410A787D
:102B7000002612F0600208D0202A01D0402A70D12D
:102B8000D0F8B422926890476DE04B78002201257E
:102B90000A2B66D2DFE803F0405D655765080565DE
:102BA0002C29FFF755FC5EE004468888D8B9C88810
:102BB000C8B94888802816D200F07F0794F89C0294
:102BC000032810D084F89E7239462046FFF704FF90
:102BD0002046FFF7C1FB1FB1022084F89C0242E0AF
:102BE00084F89C523FE020463BE0FFF777FF3AE055
:102BF000CB88012B35D190F89C32012B04D0022BCD
:102C000002D0032B2DD104E08260012200F10801E3
:102C100016E00122011D13E090F89C22012A03D046
:102C2000022A01D0032A1CD1CA88022A19D1C56000
:102C3000D0F8A41209B10321C160022200F10C01F5
:102C4000FFF77DFB0FE0498801290CD1C0F8A452A1
:102C500011E090F89C32012B08D0022B06D0032BF8
:102C600004D0FFF756FB3046BDE8F08149880129C2
:102C7000F9D1C0F8A422FFF76FFBF4E72DE9F0418A
:102C80000A46044610780027097910F060030AD03C
:102C9000202B01D0402B50D1D4F8B40211468368C8
:102CA000204698478FE0C0F34110012806D05078A5
:102CB000D0B301282AD003283FD107E0D4F8B402CA
:102CC000114683682046BDE8F041184794F89C02FD
:102CD000022802D0032872D10AE071B380296ED095
:102CE0002046FFF7AFFE80212046FFF7ABFE6AE0EB
:102CF000508838B931B1802904D0D08810B9204625
:102D0000FFF7A0FE2046FFF727FB5CE094F89C024B
:102D10000228E2D0032852D1508898BB4806F1D04F
:102D20002046FFF708FDEDE7FFE794F89C02002638
:102D3000022803D0032842D112E040E009B18029E3
:102D40003DD1080601F07F0000EB800004EB80011C
:102D500001D5143101E001F5AA7102220E602AE0CA
:102D6000080601F00F0000EB800004EB80000AD59C
:102D7000806920B301F07F0000EB800004EB800548
:102D800014350BE01FE0D0F85801C0B101F07F000E
:102D900000EB800004EB800505F5AA7541B18029A0
:102DA00006D02046FFF7B2FD10B10120286000E0F8
:102DB0002E60022229462046FFF7C1FA03E01146A1
:102DC0002046FFF7A6FA3846BDE8F08170B5054603
:102DD00008780C4610F0600003D0202801D040286D
:102DE00016D195F89C02012803D0022801D00328AF
:102DF0000ED1207901280BD8D5F8B4028268284674
:102E00009047E188014306D12846FFF7A5FA02E082
:102E10002846FFF77EFA002070BD704700487047D3
:102E2000F80600202DE9F0470C78002630F8243011
:102E300048F68F121340CA78002A7DD0012A7CD030
:102E4000022A02D0032A7FD0012648F280021343CF
:102E500020F824300D7830F8254048F68F731C4058
:102E60002C43144320F825400D7B48F2C00C48F653
:102E7000BF744CF280074BF68F79EDB391F8008068
:102E8000C24630F8285048F280181D4045EA08052F
:102E900020F82A50B0F8505091F80080054405EB16
:102EA0000815B1F8088028F00108A5F80084B0F8EA
:102EB000505091F80080054405EB0815B1F80A80E0
:102EC00028F00108A5F808844D78002D0D7830F819
:102ED00025804FEA48487DD0B8F1000F07DA30F876
:102EE000258008EA030848EA070820F825800F78BB
:102EF00030F827506D0600E02CE006D530F827505A
:102F00001D4045EA0C0520F82750CB780D78012BA1
:102F100030F8253003EA040301D083F02003134383
:102F200020F825300B7830F8231001EA090111430D
:102F300020F82310304602E003E008E004E0BDE89A
:102F4000F08743F4007380E743F4C0637DE743F404
:102F500080637AE74D782DB3B0F850500F78054470
:102F600005EB0715CF8827F00107A5F800740F7847
:102F700030F827506D0606D530F827501D4045EA39
:102F80000C0520F82750CB78012B06D00B7830F8B1
:102F90002310214081F02001C9E70B7830F823107D
:102FA0002140C4E7B0F850400D78044404EB051408
:102FB000CD8825F00105A4F80854B0F850400D78EC
:102FC000044404EB05140D6904F20C4475B13E2D64
:102FD00014D800E030E04FEA550CED0701D00CF1B9
:102FE000010C4FF6FF7505EA8C2511E0258825F4C4
:102FF000F8452580258845F4004509E04FEA551C31
:10300000ED0601D1ACF1010C4FF4004545EA8C25E9
:1030100025800D7830F82540640405D530F825402A
:103020001C403C4320F825400B7830F8231001EA7F
:10303000090181F440517AE7B8F1000F07DA30F85E
:10304000258008EA030848EA070820F825800F7859
:1030500030F827506D0606D530F827501D4045EA58
:103060000C0520F827500D7830F8253003EA0903C5
:1030700083F44053134320F825308EE70020704737
:103080002DE9F04391F80C804F780A7848F6BF7C20
:103090004BF68F7948F2800348F2C0054CF2800667
:1030A00048F68F74B8F1000F28D0002F30F8227046
:1030B0004FEA474748D0002F05DA30F82270274002
:1030C000374320F822700A7830F822707F0605D541
:1030D00030F8227027402F4320F822700D7830F806
:1030E00025202240324320F825200C7830F8242077
:1030F00002EA0C021A4320F824201AE07FB130F8CB
:103100002260760605D530F8226026402E4320F84E
:1031100022600A7830F8221001EA0C010EE030F843
:1031200022506D0405D530F822502540354320F853
:1031300022500A7830F8221001EA0901194320F8D8
:1031400022100020BDE8F083002F05DA30F822704D
:103150002740374320F822700A7830F8226076063C
:1031600005D530F8226026402E4320F822600E78E4
:1031700030F8262022402A4320F826200C7830F808
:10318000242002EA09021A4320F82420C1E7002083
:10319000704700207047012120F8401F0021018066
:1031A000818001820846704730F8401F21F43F417A
:1031B0000180002070470020704730B50A7BB2BB09
:1031C0004A7848F68F7548F28004C2B10B7830F81F
:1031D0002320520607D530F823202A4048F2C005A4
:1031E0002A4320F82320CA78012A20D00A7830F810
:1031F000221048F6BF73194081F0200114E00A78CC
:1032000030F822305B0407D530F822302B404CF2E6
:1032100080052B4320F822300A7830F822104BF634
:103220008F73194081F44051214320F8221000206F
:1032300030BD10B54A780978002A48F2800330F88A
:10324000212005D048F6BF74224082F0100204E02D
:103250004BF68F74224082F480521A4320F82120CA
:10326000002010BD2DE9F0470E464B78097B04463F
:103270004FF0000948F68F7248F2800A4FF6FF7748
:103280004FF40048012B09D000296ED0F0780228B5
:103290006CD001286BD00120BDE8F087B56930699A
:1032A000854200D90546C9B1F17848F28013022958
:1032B00023D0317834F821001040184324F821003D
:1032C000306A401B3062307834F82010490671783B
:1032D0007ED500297DD001297CD03FE1ABB2F288B8
:1032E0002046716900F0F6FAB4F8500031782044B5
:1032F00000EB0110A0F80454EAE0316A81426AD977
:10330000317834F821001040184324F82100306A45
:10331000401B3062307834F82010490671786CD543
:1033200011B1012924D02AE0B4F85010214401EB56
:10333000001000F20C404DB13E2D0FD86908EA078D
:1033400000D0491C07EA8121018018E0018821F49E
:10335000F8410180018841F40041F5E76909EA0676
:1033600000D1491E48EA8121EEE79CE1BCE126E25A
:10337000B4F85020111901EB0010A0F80C54728918
:10338000ABB22046716900F0A5FA706928447061FB
:103390003169306A884202D9401B306202E005463A
:1033A000C6F82090707800287CD1B4F850003178AD
:1033B000204400EB011000F204406DB13E2D13D803
:1033C0006908EA0700D0491C07EA8121018012E060
:1033D00001E19BE0BBE084E0018821F4F841018039
:1033E000018841F40041F1E76909EA0600D1491E6C
:1033F00048EA8121EAE7328965E011B1012921D04B
:1034000027E0B4F85010214401EB001000F2044012
:103410004DB13E2D0FD86908EA0700D0491C07EAD4
:103420008121018015E0018821F4F84101800188A3
:1034300041F40041F5E76909EA0600D1491E48EA6E
:103440008121EEE7B4F85010214401EB0010A0F800
:1034500004543289ABB22046716900F03BFA7069BE
:10346000284470613169306A884202D9401B306259
:1034700002E00546C6F82090707800287ED1B4F8A6
:1034800050003178204400EB011000F20C4055B19F
:103490003E2D10D86908EA0700D0491C07EA8121AF
:1034A00001800FE072E0018821F4F8410180018879
:1034B00041F40041F4E76909EA0600D1491E48EAEF
:1034C0008121EDE77289ABB22046716900F002FA02
:1034D000317834F8210048F6BF72104080F0300097
:1034E000C0E1327834F8220048F68F63184040EA91
:1034F0000A0024F82200B4F850003278204400EB8F
:1035000002108BB2A0F804343289DDE7B4F8501011
:10351000214401EB001000F20C404DB13E2D0FD8BC
:103520006908EA0700D0491C07EA8121018015E0FB
:10353000018821F4F8410180018841F40041F5E758
:103540006909EA0600D1491E48EA8121EEE7B4F88C
:103550005020111901EB0010A0F80C547289ABB285
:103560002046716900F0B6F97069284470613169CC
:10357000306A884203D9401B306203E06EE00546A2
:10358000C6F82090002DA3D0707858B101287FF4A0
:103590001EAFB4F850003178204400EB0110A0F8C1
:1035A000045428E7B4F850003178204400EB0111AE
:1035B00001F204413E2D06D86808EA0700D0401CFD
:1035C00007EA802005E06809EA0600D1401E48EAC3
:1035D000802008800FE711B1012921D027E0B4F83D
:1035E0005010214401EB001000F204404DB13E2D7B
:1035F0000FD86908EA0700D0491C07EA8121018039
:1036000015E0018821F4F8410180018841F400416E
:10361000F5E76909EA0600D1491E48EA8121EEE78B
:10362000B4F85010214401EB0010A0F80454328982
:10363000ABB22046716900F04DF9706928447061A1
:103640003169306A884202D9401B306202E0054687
:10365000C6F82090002D96D0707858B101287FF4DC
:1036600020AFB4F850100819317800EB0110A0F821
:103670000C5427E7B4F850003178204400EB0111D6
:1036800001F20C413E2D06D86808EA0700D0401C24
:1036900007EA802005E06809EA0600D1401E48EAF2
:1036A000802008800EE7B1693069814202D9091A89
:1036B000B161B5E00846C6F81890B1E0088820F47A
:1036C000F8400880088840F400400BE03E2875D898
:1036D0004208C00700D0521C07EA822002E000BF67
:1036E00048EA82200880B5E093B9B4F850003178F8
:1036F000204400EB0110316900F2044069B13E2919
:1037000013D84B08C90700D05B1C07EA832101804E
:10371000707888B1012832D03AE0018821F4F8416C
:103720000180018841F40041F1E74B09C90600D14D
:103730005B1E48EA8321EAE7B4F850003178204460
:1037400000EB0110316900F20C4049B13E290FD85D
:103750004B08C90700D05B1C07EA8321018017E0F2
:10376000018821F4F8410180018841F40041F5E726
:103770004B09C90600D15B1E48EA8321EEE7B4F885
:1037800050100819317800EB0110318AA0F80C14A0
:10379000F069A8B3317834F82100430401D5430619
:1037A00003D444F24003184254D134F821001040AD
:1037B00048F2C002104324F821004BE03CE0B1691C
:1037C0003069814202D9091AB16102E00846C6F89F
:1037D00018908BB9B4F850103278214401EB0211E3
:1037E00001F2044168B13E2813D84208C30700D053
:1037F000521C07EA82220A80717889B1012921D0FE
:1038000028E00A8822F4F8420A800A8842F400423A
:10381000F1E74209C30600D1521E48EA8222EAE7D4
:10382000B4F850103278214401EB021101F20C413E
:1038300000287FF44BAF41E74209C0067FF450AF48
:10384000521E4DE7B4F850201119327801EB0211E5
:10385000A1F80C04317834F821004BF68F72104037
:1038600080F4405040EA0A0024F82100002013E5CB
:103870000021A0F844104FF43F41A0F84010002070
:10388000704700000148FDF7AEB900000C070020AA
:10389000B0F844007047000010B500EB42005C082F
:1038A00000F5806009D000BF30F8042B01F8012B2F
:1038B000120A01F8012B641EF6D1DA0701D0008844
:1038C000087010BD0020704711B98021A0F84C107D
:1038D0000020704710B55B1C00EB42005B0800F550
:1038E000806009D011F8012B11F8014B42EA042243
:1038F00020F8042B5B1EF5D110BDFEE70907090E69
:10390000002804DB00F1E02080F80014704700F08C
:103910000F0000F1E02080F8141D704702E008C895
:10392000121F08C1002AFAD170477047002001E039
:1039300001C1121F002AFBD170470000FCF792FD65
:10394000FEF752FBFEF7BAF8FEF79EF9FEF74AF9CA
:10395000FEF77EF9FEF706F904214C48FDF7A0FFBB
:1039600008214A48FDF79CFFDFF824814FF4865474
:10397000214645464046FCF759FD4FF4FA70FCF7E6
:1039800039FC21462846FCF751FD04213F48FDF74C
:10399000D5FF08213D48FDF7D1FF3C213D48FDF70B
:1039A00071FE3D4CDFF8EC9000264FF0FF0A0A272D
:1039B00004F10805D9F80010486A80B2E080A288B6
:1039C000824203D00968C1F3001100E00221217096
:1039D000A080C8B2012801D1617819B1617808438B
:1039E00017D02EE02F703C2068702B49AE70032258
:1039F00008312A48FEF713FE4FF4805B0122594636
:103A00004046FCF71BFD0120FCF7F4FB0022594661
:103A100014E02F70C42068701F4985F802A00322AB
:103A200008311E48FEF7FBFD012240214046FCF70D
:103A300005FD0120FCF7DEFB002240214046FCF79B
:103A4000FDFCA07801280FD00028B3D16078FF28B2
:103A5000B0D12F7010496E70AE70032208310F483C
:103A6000FEF7DDFD6670A5E760780028A2D12F7013
:103A7000012068700849AE70032208310748FEF73C
:103A8000CEFD84F801A0A67094E70000600100203C
:103A9000000C0140A801002000000020340200209A
:103AA00000000000000000000102030406070809EE
:103AB0000000000001020304D83A000800000020C2
:103AC0006001000090010008A03B00086001002098
:103AD000980C00002C390008B20232018210132425
:103AE000F41391231B08C1041ACD041AF504131909
:103AF000241B0871081A9D041704030904120129E4
:103B00003F16406606DC051D0201020341031A1A36
:103B10000313F5251B08A50413452682081A9910DE
:103B200001101ADD141AD1041AE9041AC504140983
:103B300002221301011DE0320904A514030102153C
:103B400009211101140122382E0705810304B9E966
:103B5000241912C9240A210724A912314B0A06E0AC
:103B6000191711100E0501090EA101850A050D098D
:103B700021A1100A0509090195017501151D2501ED
:103B800081021C1A370E0016000F550F651436F00F
:103B9000F146100E16F0F126100E8106C0C000008E
:04000005080000ED02
:00000001FF
